:1000000075A001119875A002119875A0041198753A
:10001000A008119875A010119875A020119875A0CE
:1000200040119875A080119875A040119875A02076
:10003000119875A010119875A008119875A0041159
:100040009875A002119875A001119875A0031198D8
:1000500075A007119875A00F119875A01F119875BC
:10006000A03F119875A07F119875A0FF119875A0F9
:100070007F119875A03F119875A01F119875A00F5A
:10008000119875A007119875A003119875A001111A
:100090009875A000119801007F007E007D000DBDC5
:0B00A00040FC0EBE40F60FBF40F022F7
:00000001FF
